:1000000050190020452D000023700000192D00001C
:10001000192D0000192D0000192D0000192D0000C8
:100020000000000000000000000000003526000075
:10003000192D000000000000CD250000192D000042
:10004000C1260000C1260000C1260000C126000014
:10005000C1260000C1260000C1260000C126000004
:10006000C1260000C1260000C1260000C1260000F4
:10007000C1260000C1260000C1260000C1260000E4
:10008000C1260000C1260000C1260000C1260000D4
:10009000C1260000C1260000C1260000C1260000C4
:1000A000C1260000C1260000C1260000C1260000B4
:1000B000C1260000C1260000C1260000C1260000A4
:1000C000C1260000C1260000C1260000C126000094
:1000D000C1260000C1260000C1260000C126000084
:1000E000C1260000C1260000C1260000C126000074
:1000F000C1260000C1260000C1260000C126000064
:10010000C1260000C1260000C1260000C126000053
:10011000C1260000C1260000C1260000C126000043
:10012000C1260000C1260000C1260000C126000033
:10013000C1260000C1260000C1260000C126000023
:10014000C1260000C1260000C1260000C126000013
:04015000C1260000C4
:04015400FFFFFFFFAB
:1001580081F0004102E000BF83F0004330B54FEA70
:1001680041044FEA430594EA050F08BF90EA020FDD
:100178001FBF54EA000C55EA020C7FEA645C7FEA70
:10018800655C00F0E2804FEA5454D4EB5555B8BF93
:100198006D420CDD2C4480EA020281EA030382EA04
:1001A800000083EA010180EA020281EA0303362D96
:1001B80088BF30BD11F0004F4FEA01314FF4801C69
:1001C8004CEA113102D0404261EB410113F0004F7B
:1001D8004FEA03334CEA133302D0524263EB430332
:1001E80094EA050F00F0A780A4F10104D5F1200ED0
:1001F8000DDB02FA0EFC22FA05F2801841F100012B
:1002080003FA0EF2801843FA05F359410EE0A5F1FE
:1002180020050EF1200E012A03FA0EFC28BF4CF02F
:10022800020C43FA05F3C01851EBE37101F00045E5
:1002380007D54FF0000EDCF1000C7EEB00006EEBF2
:100248000101B1F5801F1BD3B1F5001F0CD349087C
:100258005FEA30004FEA3C0C04F101044FEA4452D3
:1002680012F5800F80F09A80BCF1004F08BF5FEA5A
:10027800500C50F1000041EB045141EA050130BD3A
:100288005FEA4C0C404141EB0101013C28BFB1F54C
:10029800801FE9D291F0000F04BF01460020B1FA97
:1002A80081F308BF2033A3F10B03B3F120020CDA6A
:1002B8000C3208DD02F1140CC2F10C0201FA0CF048
:1002C80021FA02F10CE002F11402D8BFC2F1200CAD
:1002D80001FA02F120FA0CFCDCBF41EA0C01904063
:1002E800E41AA2BF01EB0451294330BD6FEA0404AC
:1002F8001F3C1CDA0C340EDC04F11404C4F1200297
:1003080020FA04F001FA02F340EA030021FA04F3A8
:1003180045EA030130BDC4F10C04C4F1200220FAFF
:1003280002F001FA04F340EA0300294630BD21FA3D
:1003380004F0294630BD94F0000F83F4801306BF03
:1003480081F480110134013D4EE77FEA645C18BFF7
:100358007FEA655C29D094EA050F08BF90EA020F8E
:1003680005D054EA000C04BF1946104630BD91EA86
:10037800030F1EBF0021002030BD5FEA545C05D189
:100388004000494128BF41F0004130BD14F58004C8
:100398003CBF01F5801130BD01F0004545F0FE413C
:1003A80041F470014FF0000030BD7FEA645C1ABF71
:1003B800194610467FEA655C1CBF0B46024650EAA8
:1003C800013406BF52EA033591EA030F41F40021D4
:1003D80030BD00BF90F0000F04BF0021704730B55A
:1003E8004FF4806404F132044FF000054FF000012F
:1003F80050E700BF90F0000F04BF0021704730B5F0
:100408004FF4806404F1320410F0004548BF4042C4
:100418004FF000013EE700BF42004FEAE2014FEA19
:1004280031014FEA02701FBF12F07F4393F07F4FF4
:1004380081F06051704732F07F4208BF704793F0F7
:100448007F4F04BF41F40021704730B54FF460740A
:1004580001F0004521F000411CE700BF50EA01020D
:1004680008BF704730B54FF000050AE050EA0102B6
:1004780008BF704730B511F0004502D5404261EB26
:1004880041014FF4806404F132045FEA915C3FF467
:10049800D8AE4FF003025FEADC0C18BF03325FEA04
:1004A800DC0C18BF033202EBDC02C2F1200300FAB5
:1004B80003FC20FA02F001FA03FE40EA0E0021FADA
:1004C80002F11444BDE600BF70B54FF0FF0C4CF4C8
:1004D800E06C1CEA11541DBF1CEA135594EA0C0F7A
:1004E80095EA0C0F00F0DEF82C4481EA030621EAB5
:1004F8004C5123EA4C5350EA013518BF52EA0335F0
:1005080041F4801143F4801338D0A0FB02CE4FF0A1
:100518000005E1FB02E506F00042E0FB03E54FF0D1
:100528000006E1FB03569CF0000F18BF4EF0010EC9
:10053800A4F1FF04B6F5007F64F5407404D25FEAC5
:100548004E0E6D4146EB060642EAC62141EA555178
:100558004FEAC52040EA5E504FEACE2EB4F1FD0CBA
:1005680088BFBCF5E06F1ED8BEF1004F08BF5FEA38
:10057800500E50F1000041EB045170BD06F00046EA
:1005880046EA010140EA020081EA0301B4EB5C0497
:10059800C2BFD4EB0C0541EA045170BD41F480118F
:1005A8004FF0000E013C00F3AB8014F1360FDEBFB4
:1005B800002001F0004170BDC4F10004203C35DA90
:1005C8000C341BDC04F11404C4F1200500FA05F313
:1005D80020FA04F001FA05F240EA020001F00042B4
:1005E80021F0004110EBD37021FA04F642EB06012A
:1005F8005EEA430E08BF20EAD37070BDC4F10C0454
:10060800C4F1200500FA04F320FA05F001FA04F217
:1006180040EA020001F0004110EBD37041F1000103
:100628005EEA430E08BF20EAD37070BDC4F120050E
:1006380000FA05F24EEA020E20FA04F301FA05F276
:1006480043EA020321FA04F001F0004121FA04F21E
:1006580020EA020000EBD3705EEA430E08BF20EAEE
:10066800D37070BD94F0000F0FD101F00046400028
:1006780041EB010111F4801F08BF013CF7D041EAAA
:10068800060195F0000F18BF704703F000465200AE
:1006980043EB030313F4801F08BF013DF7D043EA7F
:1006A8000603704794EA0C0F0CEA135518BF95EA35
:1006B8000C0F0CD050EA410618BF52EA4306D1D1BC
:1006C80081EA030101F000414FF0000070BD50EADB
:1006D800410606BF1046194652EA430619D094EA65
:1006E8000C0F02D150EA013613D195EA0C0F05D14F
:1006F80052EA03361CBF104619460AD181EA0301A3
:1007080001F0004141F0FE4141F470014FF000005A
:1007180070BD41F0FE4141F4780170BD70B54FF0F5
:10072800FF0C4CF4E06C1CEA11541DBF1CEA135575
:1007380094EA0C0F95EA0C0F00F0A7F8A4EB050457
:1007480081EA030E52EA03354FEA013100F088804E
:100758004FEA03334FF0805545EA131343EA126317
:100768004FEA022245EA111545EA10654FEA0026CC
:100778000EF000419D4208BF964244F1FD0404F585
:10078800407402D25B084FEA3202B61A65EB0305E1
:100798005B084FEA32024FF480104FF4002CB6EB9E
:1007A800020E75EB030E22BFB61A754640EA0C001E
:1007B8005B084FEA3202B6EB020E75EB030E22BF5E
:1007C800B61A754640EA5C005B084FEA3202B6EB9F
:1007D800020E75EB030E22BFB61A754640EA9C005E
:1007E8005B084FEA3202B6EB020E75EB030E22BF2E
:1007F800B61A754640EADC0055EA060E18D04FEAEC
:10080800051545EA16754FEA06164FEAC30343EA8B
:1008180052734FEAC2025FEA1C1CC0D111F4801F58
:100828000BD141EA00014FF000004FF0004CB6E751
:1008380011F4801F04BF01430020B4F1FD0C88BFF0
:10084800BCF5E06F3FF6AFAEB5EB030C04BFB6EBFB
:10085800020C5FEA500C50F1000041EB045170BDEE
:100868000EF0004E4EEA113114EB5C04C2BFD4EB1B
:100878000C0541EA045170BD41F480114FF0000E9F
:10088800013C90E645EA060E8DE60CEA135594EA1B
:100898000C0F08BF95EA0C0F3FF43BAF94EA0C0F1E
:1008A8000AD150EA01347FF434AF95EA0C0F7FF493
:1008B80025AF104619462CE795EA0C0F06D152EAE7
:1008C80003353FF4FDAE1046194622E750EA4106CB
:1008D80018BF52EA43067FF4C5AE50EA41047FF4DC
:1008E8000DAF52EA43057FF4EBAE12E74A0011D28E
:1008F80012F5001211D20DD56FF47873B3EB625272
:100908000ED44FEAC12343F0004343EA505323FA7D
:1009180002F070474FF00000704750EA013002D1F2
:100928004FF0FF3070474FF00000704780F00040F4
:1009380002E000BF81F0004142001FBF5FEA4103AF
:1009480092EA030F7FEA226C7FEA236C6AD04FEAAF
:100958001262D2EB1363C1BFD218414048404140F4
:10096800B8BF5B42192B88BF704710F0004F40F4A6
:10097800000020F07F4018BF404211F0004F41F4C2
:10098800000121F07F4118BF494292EA030F3FD08E
:10099800A2F1010241FA03FC10EB0C00C3F12003A1
:1009A80001FA03F100F0004302D5494260EB400030
:1009B800B0F5000F13D3B0F1807F06D340084FEA9B
:1009C800310102F10102FE2A51D2B1F1004F40EB90
:1009D800C25008BF20F0010040EA030070474900F8
:1009E80040EB0000013A28BFB0F5000FEDD2B0FA95
:1009F80080FCACF1080CB2EB0C0200FA0CF0AABFB8
:100A080000EBC25052421843BCBFD0401843704755
:100A180092F0000F81F4000106BF80F4000001325B
:100A2800013BB5E74FEA41037FEA226C18BF7FEA32
:100A3800236C21D092EA030F04D092F0000F08BF74
:100A48000846704790EA010F1CBF0020704712F05B
:100A58007F4F04D1400028BF40F00040704712F19A
:100A680000723CBF00F50000704700F0004343F0FF
:100A7800FE4040F4000070477FEA226216BF084635
:100A88007FEA23630146420206BF5FEA412390EAF8
:100A9800010F40F4800070474FF0000304E000BFEE
:100AA80010F0004348BF40425FEA000C08BF70479F
:100AB80043F0964301464FF000001CE050EA010263
:100AC80008BF70474FF000030AE000BF50EA010278
:100AD80008BF704711F0004302D5404261EB410165
:100AE8005FEA010C02BF84460146002043F0B6438A
:100AF80008BFA3F18053A3F50003BCFA8CF2083AAF
:100B0800A3EBC25310DB01FA02FC634400FA02FCB7
:100B1800C2F12002BCF1004F20FA02F243EB0200BE
:100B280008BF20F00100704702F1200201FA02FC20
:100B3800C2F1200250EA4C0021FA02F243EB020013
:100B480008BF20EADC7070474FF0FF0C1CEAD05257
:100B58001EBF1CEAD15392EA0C0F93EA0C0F6FD018
:100B68001A4480EA010C400218BF5FEA41211ED0F6
:100B78004FF0006343EA501043EA5111A0FB0131E2
:100B88000CF00040B1F5000F3EBF490041EAD371B7
:100B98005B0040EA010062F17F02FD2A1DD8B3F133
:100BA800004F40EBC25008BF20F00100704790F0A2
:100BB800000F0CF0004C08BF49024CEA502040EAF4
:100BC80051207F3AC2BFD2F1FF0340EAC2507047BA
:100BD80040F400004FF00003013A5DDC12F1190FF8
:100BE800DCBF00F000407047C2F10002410021FA6A
:100BF80002F1C2F1200200FA02FC5FEA310040F182
:100C0800000053EA4C0308BF20EADC70704792F0FA
:100C1800000F00F0004C02BF400010F4000F013A32
:100C2800F9D040EA0C0093F0000F01F0004C02BF2D
:100C3800490011F4000F013BF9D041EA0C018FE79C
:100C48000CEAD15392EA0C0F18BF93EA0C0F0AD0A2
:100C580030F0004C18BF31F0004CD8D180EA0100C8
:100C680000F00040704790F0000F17BF90F0004F61
:100C7800084691F0000F91F0004F14D092EA0C0F43
:100C880001D142020FD193EA0C0F03D14B0218BFD6
:100C9800084608D180EA010000F0004040F0FE401C
:100CA80040F40000704740F0FE4040F440007047B8
:100CB8004FF0FF0C1CEAD0521EBF1CEAD15392EA37
:100CC8000C0F93EA0C0F69D0A2EB030280EA010C27
:100CD80049024FEA402037D04FF0805343EA1111C0
:100CE80043EA10130CF000408B4238BF5B0042F11E
:100CF8007D024FF4000C8B4224BF5B1A40EA0C00C3
:100D0800B3EB510F24BFA3EB510340EA5C00B3EBF4
:100D1800910F24BFA3EB910340EA9C00B3EBD10FE2
:100D280024BFA3EBD10340EADC001B0118BF5FEA34
:100D38001C1CE0D1FD2A3FF650AF8B4240EBC2505D
:100D480008BF20F0010070470CF0004C4CEA50201E
:100D58007F32C2BFD2F1FF0340EAC250704740F46D
:100D680000004FF00003013A37E792F0000F00F05F
:100D7800004C02BF400010F4000F013AF9D040EADD
:100D88000C0093F0000F01F0004C02BF490011F471
:100D9800000F013BF9D041EA0C0195E70CEAD15369
:100DA80092EA0C0F08D142027FF47DAF93EA0C0F50
:100DB8007FF470AF084676E793EA0C0F04D14B0234
:100DC8003FF44CAF08466EE730F0004C18BF31F0E6
:100DD800004CCAD130F000427FF45CAF31F00043E0
:100DE8007FF43CAF5FE700BF53B94AB9002908BF99
:100DF80000281CBF4FF0FF314FF0FF3000F00CB857
:100E0800ADF1080C6DE904CE00F008F8DDF804E057
:100E1800DDE9022304B07047704700BF2DE9F047B1
:100E280086468C460846089E154674461946002B89
:100E380040F0C1808542B2FA82F245D94AB1C2F186
:100E4800200300FA02FC954094402EFA03F343EA8B
:100E58000C0C4FEA154EA8B2230CBCFBFEF80EFB97
:100E680018CC08FB00F943EA0C43994528D9EB183C
:100E780008F1FF3704D2994502D9A8F102072B449B
:100E8800A3EB0903A4B2B3FBFEFC0EFB1C330CFB63
:100E980000F044EA0344A04214D92C190CF1FF33A2
:100EA80004D2A04202D9ACF102032C44241A43EA2A
:100EB80007401EB1D440002334607360BDE8F0875A
:100EC8004746DDE76346F1E792BB431B01214FEA42
:100ED800154EAFB2200CB3FBFEFC0EFB1C330CFB13
:100EE80007F840EA0343984561D9EB180CF1FF3045
:100EF80004D2984502D9ACF102002B44A3EB0803B5
:100F0800A4B2B3FBFEFC0EFB1C330CFB07F744EA50
:100F18000344A7424DD92C190CF1FF3304D2A74240
:100F280002D9ACF102032C44E41B43EA0040C0E7B9
:100F3800C2F120039540944020FA03F12EFA03F3FE
:100F48004FEA154E9040AFB20343B1FBFEFC0EFBD7
:100F58001C10190C0CFB07F841EA0041884522D9FE
:100F680069180CF1FF3004D2884502D9ACF10200AF
:100F78002944A1EB08019BB2B1FBFEFC0EFB1C113E
:100F88000CFB07F743EA01439F420ED9EB180CF11B
:100F9800FF3104D29F4202D9ACF102012B44DB1B82
:100FA80041EA004193E76046E3E76146F7E76046B8
:100FB800A4E76346B8E7834206D916B90021084674
:100FC8007CE7C6E900E0F9E7B3FA83F78FB9834213
:100FD80001D3724508D8BEEB020460EB030301207D
:100FE8009C461EB9002169E73846FAE7C6E9004C75
:100FF800F8E7C7F1200CBB400EFA07F522FA0CF40B
:101008002EFA0CF1BA401C4320FA0CF3B8404FEA10
:10101800144901431FFA84FEB3FBF9F809FB1830A1
:101028000B0C08FB0EFA43EA00439A4540D9E31833
:1010380008F1FF3004D29A4502D9A8F102002344EE
:10104800A3EB0A0389B2B3FBF9F809FB183308FBD1
:101058000EFE41EA03418E452CD9611808F1FF3391
:1010680004D28E4502D9A8F10203214443EA004084
:10107800A1EB0E01A0FB02984145CE46434602D3A0
:1010880006D14D4504D20138B9EB020E68EB0403D2
:10109800002EA7D0B5EB0E0261EB030101FA0CFCA0
:1010A80022FA07F3F9404CEA0303C6E9003199E74D
:1010B8004046C5E74346D9E7034613F8012B002A03
:1010C800FBD1181A013870472DE9F04F44488BB00E
:1010D80005F04BFD4FF4FA730793002341488DF850
:1010E8001A308DF81B3005F040FD3F4F384606F0AA
:1010F80054FB28B33D4EDFF8F880079B0393BB6889
:101108000021049338485B6808AA9847011E15DB3C
:10111800DDE9084A30A3D3E90023A4FB06B506FBA2
:101128000A554FF0FF3929465846FFF75DFED94565
:1011380078EB050505900BD26FF085012D4801E08D
:1011480039682D4805F011FD00200BB0BDE8F08F7F
:101158004FF47A73039A5343A3FB045403FB0A44E2
:101168001DA3D3E9002321462846FFF73DFEA945E4
:1011780078EB04040346DFD3059A824202D26FF06B
:101188001501DBE700220092049A00211468164832
:10119800059AA04701460028D0D107A90DF11B00E8
:1011A80000F032F80399154805F0DFFC9DF81B1094
:1011B800134805F0DAFC07A90DF11A0005F08AFCBE
:1011C800104805F0D2FC00214FF4004004F0CAFE9C
:1011D80093E700BFAFF3008000CA9A3B000000000D
:1011E8001081000027810000A87B0000002D31013C
:1011F800FFC99A3B5C8100003981000081810000B1
:10120800968100002082000010B504460868A0F509
:10121800FA70FFF741FC0649FFF74AFDFFF7FCF8B3
:101228000022044BFFF750F9FFF760FB207010BD58
:101238000000FA44008066402DE9F04F91B0009319
:1012480002F004030293C2F3C20301338407054684
:101258000E46DDF868900392059340F0BB81041DAB
:1012680030B1072909D86FF01B0011B0BDE8F08F25
:1012780001F00706341DC6F10806009B4FF0000870
:101288004FF0040A591E4FF0FF3347460193C346F7
:101298005346CDF810800DB1009A226005980028B9
:1012A80000F3E8809848009A824203D39748824224
:1012B800C0F0E080039AA4EB050E92074FEA9E0067
:1012C80000F103810F2F00F2B180002D00F005819D
:1012D80007F140020DEB020C019A0CF8200C0CF8F7
:1012E800102C049801300490E7E07A285DD84B2848
:1012F8000ED8472859D829282DD8252852D054D86F
:1013080020287AD02338D0F1000B4BEB000B74E087
:101318004C382E2849D8DFE800F07048484848483B
:101328004848484848484B48484848484848485921
:10133800484B4B595959704B6D487048184B1848D1
:1013480048827F4B48484B487F0000204FF0000BF5
:101358004FF0040A38E001222A38C0B202FA00F03D
:1013680010EA0E0F49D110F0625C2FD110EA020B7F
:1013780043D06046013C5444B4FBFAF40AFB04F43D
:10138800002D61D0A3EB050CA4446645FFF46BAFB8
:10139800002868D1042B47D159F8043B2360042363
:1013A80004342AE0019A013A01924FF0000B24E03C
:1013B80011F8010C6C2834D1002011F8023C834646
:1013C8006C2BC5D14FF0080A5346D3E709F107093A
:1013D80029F00709073424F00704F9E802AB35B10E
:1013E80006982044B0423FF63EAFC4E900AB4FF048
:1013F800000B08344FF0080A534611F8010F002873
:1014080078D0BBF1000F7FF470AF2528F5D14FF0ED
:10141800010B019B013301934FF0040AECE7584696
:1014280094E700208346A5E7082B02D06FF015004B
:101438001BE709F1070929F00709F9E80223C4E9BC
:10144800002308230834D8E768B9042B02D109F12E
:101458000409A4E7082BE9D109F1070929F00709CC
:1014680009F10809EDE7059A013A059259F8042BA4
:10147800009210E7039A900720D54FF0010CA4EBD7
:10148800050E4FEA9E00BEF5007FCFD20F2FCDD8B4
:10149800F5B107F140020DEB020E019AC0B20EF849
:1014A800200C0EF8102CBCF1000F3FF41AAF60F0BE
:1014B8007F000EF8200C08F101080137C5F1080279
:1014C8004FF6DA7E0434069297E74FF0000CDAE71D
:1014D800BCF1000F01D00136EFE702980236002870
:1014E800EBD10098CDE90631FFF7E6FDDDE90631DD
:1014F8000644E2E7631BB3F5806F97D245B9A6F1BE
:101508000804E018B1E600BFC47A0000148C00009B
:10151800029A9B0828602B709DF81030C2B1EB70BE
:1015280085F80280B8F1000F05D0002208A8C5F19F
:10153800010C97420ED14FF0000AC5F101030DF1DD
:10154800200901930DF1300B574512D1601B8CE631
:101558006B70E5E710F8013B190608D504EB0C0E93
:10156800764503F07F03FFF47EAE04F8013B0132B9
:10157800DFE7B8F1000F03D099F90020002A17DB44
:10158800029BD3B11AF80B2004F8012B0022019B0F
:10159800981820448642FFF466AE99F80000009936
:1015A80004F8010B2046039206F068FA039A1444E3
:1015B8000AF1010A09F10109C6E799F8002055F86E
:1015C80022300093029B009845F82230FFF774FD03
:1015D800421CDCE76FF00D0047E600BF014B1860C6
:1015E800704700BF0000002080B505460E4617462C
:1015F800984604F0D1FC034606F056FA0446DFF894
:101608001890424649F8003039463046A84754F801
:10161800090001F00DFC00BF080000002DE9F047AB
:10162800058B04462807904611D4022905F00705C2
:1016380040F0CD80204605F085FB78B10138218B3C
:10164800042811D8DFE800F0C3106D859500012942
:101658000CBF45F0100545F02005258388F3118857
:10166800BFF36F8FBDE8F08701F0070AAA4500F0C5
:10167800A6800027B9463E46A368002B00F0BD802F
:1016880041F00801218388F31188BFF36F8FA168A7
:10169800002900F0BB800D68002900F0B7803346B0
:1016A80052462046D1F80480C047002D76D02B68DA
:1016B80029461D46F0E701F007035A1F012A1BD8E7
:1016C800002221F00701062B276889B2C4E900220D
:1016D80009D13B4603E0628B013262831B68002B11
:1016E800F9D141F002012046218305F02BFB0028A7
:1016F8007BD041F0200177E0042B0AD121F00701CB
:1017080089B22046218305F01DFB10B141F020016C
:101718002183218B01F0070AAA4550D00027B9463A
:10172800AAE7236921F0070141F00601062DD3F845
:10173800009021832DD1B9F1000F40D041F008016C
:10174800218388F31188BFF36F8F20463949C84732
:1017580029E021F00701236941F0040189B2042D31
:10176800D3F804902183E6D000274FF0040A3E46C0
:1017780082E721F00701236941F0050189B2052DAF
:10178800D3F808902183D6D000274FF0050A3E46AB
:1017980072E700274FF0060A3E466DE72B4687E7BB
:1017A800B9F1000FD1D14FF02003EFF3118883F383
:1017B8001288BFF36F8F238B23F008032383258BB5
:1017C800EA062ED525F01003238305F00705666980
:1017D800218B002EBFF66FAF00232768C4E90033C2
:1017E80021F0070141F001012183218B4FF000090D
:1017F80001F0070AAA457FF43FAF002F9BD041F0C4
:101808000801218388F31188BFF36F8F002FC7D099
:101818003D68394633465246204605F0BFFA2F4602
:10182800F4E7AB067FF51AAF25F02003238305F014
:101838000705FFE6D16D0000044608B54FF0200209
:10184800EFF3118382F31288BFF36F8F02F064FF06
:10185800204601F0A3FA034805F087F900F0BCFD23
:10186800FCE700BFB481000007B50DF1070005F0E3
:1018780011FE114B98421CD14FF480620F4B104956
:10188800C3F8B8254FF40062C3F83C259DF807005B
:1018980005F0ECFD0B499DF8070005F0E2FD01207D
:1018A8009DF80730984003F0A7F8002003B05DF8D2
:1018B80004FB6FF00B00F9E70000AD0B00A002502D
:1018C8002CA0025028A10250054B03EB8000D0F851
:1018D800003223F0E04343F04053C0F80032704731
:1018E80000258450012208B50A4B0B49C3F800258E
:1018F80002230020C1F8D036FFF7E6FF1046FFF7B5
:10190800E3FFC1F80427C1F80429C1F8002B00201F
:1019180008BD00BF0010005000400050052370B5FE
:10192800144D154E2C780134B4FBF3F303EB830309
:10193800E41A05F084FD114A137823B156F82430CF
:10194800C01A072814D94FF05023D3F8141141B105
:101958000021C3F81411D3F814312C700CB90123E9
:1019680013702C7805F06BFD46F82400012070BD3B
:101978000020FCE7050C0020F8020020040C0020E1
:1019880048B1054B054A1B68B3FBF2F35843044BB7
:1019980043F00103184770475C00002040420F00E5
:1019A800807E00007FB50BAB05930393054B0122A6
:1019B800029300231846CDE9003300F0CDF907B0B3
:1019C8005DF804FBE181000070B5049CC4F30726B0
:1019D800304602F0A3FCE5B20146284605F052FD68
:1019E80000220120074BA40B04F0FC041A51A84064
:1019F80003F008F8304602F045FE2846BDE870407E
:101A080003F074B880A0025070B586B005A803F042
:101A180067F8294B98424CD102F016FE041E0FDAE3
:101A28009DF8140003F062F8244B0122029300236E
:101A380023491846CDE900330394FFF7B3FF35E097
:101A480040F607031F4D8DF81540AE68ADF8163007
:101A58007468059B14B96FF05704E5E70821284618
:101A6800194AA047041EDFDB3369002BF3D001229B
:101A7800082128469847041ED6DB01209DF814301B
:101A8800984002F0B9FF9DF815009DF814509DF894
:101A9800176005F0BFFC0146284605F0E7FC0B4B34
:101AA800B60045F000459D51002CBDD1204606B03A
:101AB80070BD6FF01204B7E70000AD0BE1810000C4
:101AC800547E0000947B0000D91A000080A10250C7
:101AD8002DE9F341144683681B690BB1002298472E
:101AE800C4F30726304602F021FC0546304605F0CF
:101AF80091FC4FF00008E7B20146384605F0C6FCF5
:101B0800104B220E920043F80280304602F006FC89
:101B18000D4A4FEA943C0CF0FC0C47F0004342F8A5
:101B28000C300146384605F09CFC084B05F13202A2
:101B38000093304643460194520005F074FC02B00D
:101B4800BDE8F08180A1025080A00250D1190000A8
:101B580002F034BE2DE9F84F81462F480F4605F0B4
:101B6800CFF9064670B92D4C0546A0464FF0010B3B
:101B7800DFF8ACA0544507D3B9F1000F02D04FF0FD
:101B8800010AE5B9BDE8F88F237B73B12368DB68E8
:101B98000BB12046984723681B6943B96368042240
:101BA8002046196800F0C4F801361034E2E72046F0
:101BB80098470028F2D00BFA06F31D43F4E7A9462C
:101BC80095FAA5F4B4FA84F40AFA04F3260108EBAA
:101BD80004146FEA030B25EA0305237B63B158F865
:101BE80006301B6993B94644736804222046196875
:101BF80009EA0B0900F09CF8002DE1D127B14FF458
:101C0800A470002104F0AEF94D46BAE72046984783
:101C18000028F1D1E7E700BF14030020647E00002C
:101C2800747E0000014B53F820007047887E000046
:101C380008B5034608462BB1044A136000F07EFA43
:101C4800002008BD6FF01500FBE700BF040000206E
:101C58000023054A4FF400411370044A04481360F6
:101C6800044A1360FFF7E4BF060C00200C030020B1
:101C7800056F00001003002070B50B4D297841B99D
:101C88000120FFF767FF094C094EB44202D3012334
:101C98002B7070BD63685B791BB1236820469B6815
:101CA80098471034F1E700BF060C0020647E00005E
:101CB800747E000010B50446064805F021F93CB1D1
:101CC800054BD3E8EF1F0139C3E8E21F002AF8D11A
:101CD80010BD00BF0C0300201003002070B50A4B94
:101CE80005461B689847094C094EA860B44200D3C2
:101CF80070BD63685B7923B12368294620461B6859
:101D080098471034F2E700BF04000020647E00000A
:101D1800747E0000044A054B9B1AB1EBD30F34BF05
:101D280052F8310000207047E47D0000647E000016
:101D3800084B10B4C31A44681B110133237143685C
:101D48009A7101224368196043685A7110BC05F002
:101D5800F5B800BF647E00002DE9F04F85B002AFF2
:101D68000446D7E90EA90E46934698463D6BBAF14C
:101D7800000F33D0C7F80490CDF8009010215346D7
:101D880000207A6BFFF758FA0146154A04F0070459
:101D98000BF0070BE40044EA8B1402EA41221443D7
:101DA80044EA055417350D4425F00705ADEB050D3C
:101DB80002ADBAF1000F07D0CDF8009053467A6B08
:101DC80005F11000FFF738FA434622463146284607
:101DD80005F0B7F80C37BD46BDE8F08F5146D4E79B
:101DE80000FE0F000EB403B503AB53F8042B0146F5
:101DF8000448019301F0F2F902B05DF804EB03B076
:101E0800704700BF7D6F0000CA0605D48B064CBF23
:101E180002490349FFF7E6BF704700BF2082000070
:101E28001F8200002DE9F04F89B09A46DDE914734E
:101E38009DF84CB00593169B04460D46179E0692D6
:101E48000493BBF1000F00F0858006F008030793A8
:101E580005F075F806F002090246002849D0204628
:101E68008549FFF7BFFF8046B9F1000F08D016F08B
:101E7800440F40D12A4620468049FFF7B3FF8044EB
:101E880006F0010353B17E4B204653F82B207D4BBF
:101E98007D49002A08BF1A46FFF7A4FF06F0080389
:101EA800002B54D0794B204653F82B207849FFF764
:101EB80099FF0546069B2BB11A4620467549FFF740
:101EC80091FF0544BAF1000F05D0524620467249E9
:101ED800FFF788FF05444544002F49D1049B002B98
:101EE8004FD1F30700F1C18031462046FFF78CFF40
:101EF800B5E08046B8E7694B18680028BFD0684B42
:101F08004FF47A791B684FF46161B5FBF3F5B5FBC3
:101F1800F0F300FB135509FB05F5B3FBF1F2B5FB34
:101F2800F0FE4FF03C0C01FB123100FB1E55B1FBDB
:101F3800FCF309FB05F5B5FBF0F50CFB1311204686
:101F48000091CDE901E55749FFF74CFF97E706F007
:101F58000805AFE7BAF1010F06D1002F65D1049B40
:101F6800002B7CD000250CE0002FF8D04E485DE017
:101F78004E483B4622464E4904F0C4FD049B002BC4
:101F880069D0DFF83081DFF83091049F3146102F97
:101F9800204628BF10274FF0000AFFF735FF5545A8
:101FA80046DC059B494620461A78FFF71BFF4FF091
:101FB800010A1AF0070F03D141462046FFF712FF26
:101FC80057453CD9059B4946204613F80A20FFF798
:101FD80009FF0AF1010ABAF1100FEAD14FF0000A1D
:101FE80020463649FFF7FEFE5246059B20469A5C7E
:101FF800334B995C11F0970F08BF2E223149FFF738
:10200800F1FE0AF1010ABAF1100F1DD01AF0070FFC
:1020180003D141462046FFF7E5FE57455246E4D82E
:1020280041462046FFF7DEFEEBE720485D46A0E785
:1020380041462046FFF7D6FE0AF1010AAFE72046DF
:102048002149FFF7CFFEC4E7059B3B440593049B5A
:10205800DB1B049399D1BBF1000F7FF442AF2046FC
:1020680009B0BDE8F04F04F0AEBF2046054A064966
:10207800FFF7B8FE38E700BF278200002B82000078
:10208800987E00002282000050820000AC7E000092
:1020980053820000598200005D8200001C0300206A
:1020A8001803002034820000996F00007D6F000043
:1020B800E53100006A820000628200006C82000044
:1020C800048B00006E820000688200002DE9F04158
:1020D8000F884B6805460C4690468E6886B0C7F355
:1020E80082175BB1144A9B1A43F3CF01002920DB06
:1020F8002078C0F3C200FFF70DFE0346214651F8D1
:10210800102B6088C2F34A22002A01EB020408BFA0
:1021180000210022C0F30B10CDE90408CDE9021418
:102128002846314601970092FFF77CFE06B0BDE8CD
:10213800F0810023E2E700BFE47D000000210123D5
:10214800064A904206D8064A01B901231360054B96
:1021580018607047012140085B00F2E740420F0019
:10216800180300201C030020014B00201960704751
:10217800340300200122024B02481A7004F023BFE6
:10218800080C0020DC7E000010B5064B0C461868D1
:10219800FFF748FD2146BDE8104003460F220248DC
:1021A800184700BF34030020DC7E0000F8B50D4658
:1021B8000446064F4618B44201D12846F8BD14F823
:1021C800011BBB6801485B689847F4E7807B000007
:1021D800014804F0F7B800BFEC7E000038B50446AB
:1021E80018B90F4B0F485B6898476168B1F5683FAD
:1021F80010D0B1F5680F0DD00B4DA9420AD011F4DB
:102208006861206807D00146084805F009FB0023EB
:102218002360656038BD142205F03DFCF9E700BF76
:10222800E8000020AB8200002C5F5CA93808002081
:1022380008B560B34368B3F5683F0ED0B3F5680FCF
:1022480018D0144A934220D000684FF0FF324FF064
:10225800FF3303F0C3FA58B115E001220368D3E84D
:10226800EF1F002903D1C3E8E02F0028F7D10AD1D6
:10227800002008BD0368084A1B7803F5807352F8EC
:102288002330002BF4D00548F3E70548F1E76FF455
:10229800E040EEE72C5F5CA900000350E98FFFFFE8
:1022A800EA8FFFFF08B520B34368B3F5683F09D04C
:1022B800B3F5680F13D0114A93421DD0006803F09C
:1022C80007FB14E000220368D3E8EF1F012903D1BC
:1022D800C3E8E02F0028F7D109D0094808BD00213C
:1022E8000368084A1B7803F5807342F8231000201E
:1022F800F4E76FF4E040F1E70348EFE72C5F5CA9EF
:10230800E98FFFFF00000350EA8FFFFF10B5044676
:1023180018B91D4B1D485B6898476368B3F5683F5B
:102328002FD0B3F5680F2CD0194A934219D12368DE
:1023380003BB4FF0FF324FF0FF332146154803F03F
:1023480085F908B923681BB90F4B13485B68984790
:1023580014220021206805F09EFB4FF46863636037
:1023680008E0B3F5683F0DD83A2B03D040F6BA62BF
:102378009342DED1206805F095FA636843F03A038A
:10238800636010BD054AF3E7E8000020AB82000057
:102398002C5F5CA938080020D18200003A00003A7E
:1023A80008B5064940231422054805F02BFABDE874
:1023B80008400449044804F077B800BF38030020F7
:1023C80038080020F47E0000087F00000149102230
:1023D8000A60704710ED00E072B6404080F3118843
:1023E800BFF36F8F01B5FFF799FA002802D0BFF34A
:1023F8004F8F30BFBDE8014062B6BFF36F8F7047A3
:1024080072B6494081F3118801B5FFF787FA0028B1
:1024180002D0BFF34F8F20BFBDE8014080F3118881
:1024280062B6704770B506460D4686B0002938D0AA
:1024380000248B68012205934B68204604930B689F
:102448001B4903931B4BCDE900440293234604F038
:10245800CCFD6B69012205932B6920460493EB6838
:1024680013490393144B0094CDE90143234604F028
:10247800BCFDEB6901220393104B2046CDE90143D3
:102488000B492346009404F0B0FDAB690122039385
:102498000B4B2046CDE9014305492346009404F03F
:1024A800A4FD2946304606B0BDE8704002F05EBF84
:1024B8003C7E0000FE8200002D8300005C8300004B
:1024C8006B83000040B2002807DB01234109034A5F
:1024D80000F01F00834042F82130704700E100E01F
:1024E80040B200280CDB01220649430900F01F0016
:1024F8008240203341F82320BFF34F8FBFF36F8F03
:10250800704700BF00E100E0054B420953F8222064
:10251800012300F01F0003FA00F01040704700BFCD
:1025280000E100E040B2002801F10101ACBF00F178
:102538006040064B4FEA4111C9B2ABBF00F561409C
:1025480000F00F0080F800131954704714ED00E0F4
:1025580030BFFFF7FDBF00BF0B4A08B50B4B22F099
:102568007F029A60BFF34F8FBFF36F8FD3F8882035
:1025780022F47002C3F8882002F09CFF03F072FD79
:1025880000F0D0FB02F0E0FF0000000000ED00E0EA
:10259800094A0A49936809685867996708494B685E
:1025A80043F080534B60002383F31188BFF36F8F90
:1025B8009368986F704700BFFC09002054800000A2
:1025C80000ED00E016498A684FF030001044EFF340
:1025D800098C80E8F01F202080F31288BFF36F8FEA
:1025E800104F4FF000664A698A603E604FF07004F1
:1025F800141920680C4C2060506F0023536780F337
:10260800118802F1300090E8F01F8CF3098802F17C
:10261800000004B504F008FDBDE804407047000060
:10262800FC09002004ED00E0540800201EF0040F0F
:102638000CBFEFF30880EFF30980816911F8021CE1
:102648000229FFD001B504F0E0FC01BD42F8203CAE
:10265800009B0B4942F81C3C019B21F0010142F808
:10266800183C029B42F8081C42F8143C4FF0807357
:1026780042F8043C0023203A02654367704700BFD4
:10268800F11500000A4B046F98600A4B1C60036E3A
:1026980083F30B88104681F30988002163B681F320
:1026A8001188BFF36F8F00220023FEF79DFF00BF44
:1026B800FC0900205408002001B5EFF30580A0F1C3
:1026C80010004FEAC0000449014409C99847BDE811
:1026D8000140024908470000BC7B00004527000074
:1026E800114B124A2DE9F041D518013DB5FBF3F520
:1026F800DFF83C805D430F4B074608EB0304013CC1
:10270800B4FBF3F403FB04540E1B30460A4905F0EE
:10271800B5F9701942460021083E05F0BCF93E673C
:1027280004F10800BDE8F08101000000000000008D
:102738000400000004000000747E0000044B996847
:102748005869884203D003494FF080520A607047A5
:10275800FC09002004ED00E0F0B50024414B85B0F1
:102768000293074623460E4601222046CDE900443F
:102778003D4904F05DFC3D4B9B6ADD066FD53C4B43
:102788002046CDE90143012223463749009404F04D
:102798004FFC1120354B9B6A1C070AD5354B01228B
:1027A8000293002330491846CDE9003304F040FC79
:1027B80012202E4DAB6A99071FD500242E4B0122FB
:1027C800029320462346CDE90044274904F030FC13
:1027D8006B6BAA6A12060FD50393284B0122CDE929
:1027E8000143204623462049009404F021FC1FB1F0
:1027F800AB6A23F08003AB6213201C4B9B6ADD0796
:102808000AD51F4B01220293002317491846CDE928
:10281800003304F00DFC1420144B9B6A9C060AD567
:10282800184B0122029300230F491846CDE90033C3
:1028380004F0FEFB15200D4B9A6AD10658BF9A6A20
:102848009A6A920642BF5A6A22F400525A629A6AF7
:1028580042F0FF029A620023337005B0F0BD1020E9
:1028680098E700BF998300003C7E000000ED00E07F
:10287800AF830000E2830000F58300000D840000B0
:102888002384000042840000F0B50024434B85B047
:102898000293074623460E4601222046CDE900440E
:1028A8003F4904F0C5FB3F4B9B6ADB0465D53E4BB3
:1028B8002046CDE90143012223463949009404F01A
:1028C800B7FB1720374B9B6A1D050AD5374B0122EA
:1028D8000293002332491846CDE9003304F0A8FBDF
:1028E8001820304DAB6A9C051FD50024304B0122BF
:1028F80020460293CDE900442346294904F098FB79
:10290800AB6BAA6A10040FD503932A4B0122CDE9B9
:102918000143204623462249009404F089FB1FB155
:10292800AB6A23F40043AB6219201E4B9B6A59051E
:102938000AD5214B01220293002319491846CDE9F3
:10294800003304F075FB1A20164A936A13F4807357
:1029580015D01A4B01220293002311491846CDE9DC
:10296800003304F065FB1B200E4A936A43F47F434F
:1029780093620023337005B0F0BD1620A2E7926A77
:102988009204F1D50E4A1846CDE9013204490122D4
:10299800009304F04DFB1C20E6E700BF71840000A3
:1029A8003C7E000000ED00E087840000E283000028
:1029B80098840000B1840000C6840000E18400000F
:1029C800428400001FB500243E4B3F490293012278
:1029D80023462046CDE9004404F02AFB3B4B9B6A82
:1029E80099016DD53A4B2046CDE901430122234692
:1029F8003549009404F01CFB1E20344B9B6ADA0115
:102A08000AD5344B0122029300232F491846CDE9F9
:102A1800003304F00DFB1F202C4B9B6ADB020AD508
:102A28002D4B01220293002327491846CDE9003394
:102A380004F0FEFA0220254B9B6A1C030AD5274B9B
:102A480001220293002320491846CDE9003304F0FF
:102A5800EFFA21201D4B9B6A59030AD5204B01220E
:102A68000293002318491846CDE9003304F0E0FA30
:102A78002220164B9B6A9A030AD51A4B012202930D
:102A8800002311491846CDE9003304F0D1FA232078
:102A98000E4B9B6ADB030AD5134B012202930023DA
:102AA80009491846CDE9003304F0C2FA2420074A40
:102AB800936A6FEA03436FEA1343936204B010BD4D
:102AC8001D209AE7F98400003C7E000000ED00E03C
:102AD80011850000248500003E85000068850000FF
:102AE80086850000AB850000C58500002DE9F04112
:102AF800754B04465F6890B00023C7F3080683F35C
:102B08001188BFF36F8F02F07F40B0F17F4F0CD177
:102B180002F00C00082819D16C4A1846CDE9013298
:102B28006B490122009304F083FA00252C464FF0EC
:102B38000008F31E8DF81F80092B00F2AB80DFE838
:102B480003F00B9FA39BA9A9A9A9A9A7120746BF90
:102B58000C461D460125EAE75E4B0122CDE90183BB
:102B680000235B491846584FCDF8008004F060FAFE
:102B78008DF81F80FE6A16F0020605D0564BCDE987
:102B88000183CDF8008006E0FB6A002B0BDA534B7B
:102B98000096CDE901630023012218464C4904F050
:102BA80047FA00223AE0FB6A5B00FAD54C4B012257
:102BB800CDE90163304633464549009604F038FABA
:102BC8007B69A26943F480737B61BFF34F8FBFF3C6
:102BD8006F8F7B6932F8022C23F480737B61BFF31B
:102BE8004F8FBFF36F8F4DF602739A4209D0BB6ABD
:102BF800DBB2002B32D001200DF11F01FFF7ACFD35
:102C08003CE0236801220393364B3046CDE901634B
:102C18002F493346009604F00BFA22689DF81F30BE
:102C2800CBB908AE04F12007334620686168083440
:102C380003C3BC421E46F7D10F9B002D3ED0C3F301
:102C4800080121B96FEA53236FEA43230F93104613
:102C580008A9FFF7E7FB10B0BDE8F081BB6A13F4E1
:102C68007F4F05D001200DF11F01FFF70DFE05E094
:102C7800BB6AB3F5803F94D3FFF7A4FE0246CDE7C5
:102C880000200DF11F01B9E700200DF11F01ECE74D
:102C9800154B74E7154A17F4F87F154B18BF134600
:102CA800103ECDE90336134B012202930023084955
:102CB8001846CDE9003304F0BBF972E723F4FF733B
:102CC80023F00103C2E700BF00ED00E01E8600000C
:102CD8003C7E000049860000608600008186000076
:102CE8008F860000AE860000CA86000005860000B8
:102CF800F0850000EE860000044B5A6942F010028D
:102D08005A615A6942F480625A61704700ED00E0E6
:102D1800EFF30880EFF3098101B57246FFF7E6FE8D
:102D280001BD00BF002320210348C2180133452BF1
:102D380082F80013F9D1704700E100E0002080F329
:102D48001488BFF36F8F002080F30A8880F30B8804
:102D5800FEF7FEFE00200E490860BFF34F8F0D48B6
:102D680080F3088800F03EF8202080F311880A4894
:102D78004FF40061401880F30988EFF314800221B2
:102D8800084380F31488BFF36F8FFFF7E5FB00005B
:102D980094ED00E050190020100C0020BFF34F8F75
:102DA8000549064BCA6802F4E0621343CB60BFF3DF
:102DB8004F8F00BFFDE700BF00ED00E00400FA05FB
:102DC800002318460649D1F89020C2F307229342FF
:102DD80000DB7047C1F89830C1F8A0000133F6E76E
:102DE80000ED00E010B572B6002484F31388FFF7F5
:102DF800E7FF23464FF0FF300C4A03F1200101336F
:102E0800102B42F82100F8D100234FF0FF30074A79
:102E180003F160010133102B42F82100F8D162B6AA
:102E2800BFF34F8FBFF36F8F10BD00BF00E100E00D
:102E3800084B9B6883420BD1EFF3058343B1064BE4
:102E48005A6842F080525A605A6A22F400425A6222
:102E580003F0A8B8FC09002000ED00E01FB5094CFC
:102E6800094A23460121094800F018F90023039371
:102E7800074B0121E41A01A80193029400F018F904
:102E880004B010BD0000072000000020187F0000DB
:102E9800A801002010B50C7A0B6804F01F0223F07B
:102EA8001F031A43CB68640923F01F03054943EA4B
:102EB800440343F00103C1F89800C1F89C20C1F80D
:102EC800A03010BD00ED00E007281FB504460FD95B
:102ED800094B03900293002301221846CDE90033E1
:102EE800064904F0BEF86FF01504204604B010BD82
:102EF800FFF7D0FFF9E700BF05870000347E000028
:102F08002DE9F04F8946144606464FF00008544D07
:102F180089B0C8452DDAD6F804A0BAF1000F4AD016
:102F2800BAF11F0F17D91AF01F0F14D1D6F800B035
:102F38001BF01F0F0FD1584604F08AF807460AEB1A
:102F48000B00013804F084F8874216D06FF015079B
:102F5800444B039702E0444BCDF80C8002930023C6
:102F680001221846CDE90033404904F07AF86FF0A1
:102F78001504204609B0BDE8F08F17F1160FE7D009
:102F8800BC42E5DDC5F89870D5F89C10C5F8987076
:102F9800D5F8A03021F01F0143F01F0BD6E900320D
:102FA8001A44994202F1FF3A1DD1D34507D131465F
:102FB800F8B204F066F808F101080C36A9E73146C2
:102FC800C5F89870D5F89C3022F01F0203F01F0353
:102FD8001343C5F89C30E0B204F053F810F1160F13
:102FE800C5D0441CE7E7C5F89870D5F8A020013B88
:102FF80023F01F0302F01F021343D3453146E0B20A
:10300800C5F8A030E8D004F03CF810F1160FAED0A7
:10301800C5F89870D5F89C209DF818300BF1FF3B47
:1030280062F304038DF81830D5F8A0309DF8182005
:103038005B0863F347128DF81820D6E90032134471
:10304800049323F01F035B44A3EB0A03013023F02E
:103058001F0304A9C0B20793FFF736FFBEE700BFFE
:1030680000ED00E04E8700002B870000347E000052
:103078000522044BC3F89420BFF34F8FBFF36F8F23
:10308800704700BF00ED00E0BFF35F8F0022024BE6
:10309800C3F89420704700BF00ED00E010B5034C62
:1030A8002278FFF72DFF207010BD00BF090C00200B
:1030B8002DE9F74F294D8A4606464FF00008AB46E2
:1030C800274FD0451BDAD6F80490B9F1000F3FD04E
:1030D80031680846019103F0BBFF0199044609EBEA
:1030E8000100013803F0B4FF84424FF014021D4B75
:1030F80008D002FB08F36FF015024BF8032003B069
:10310800BDE8F08F14F1160F2C60F8D01978A142A1
:10311800F5DD02FB08B0C7F89840C7F89840D7F823
:103128009C4000F10801007B64F304000871D7F8A3
:10313800A0000C79400860F347140C71D7F89C1074
:1031480021F01F016960D7F8A01021F01F01296143
:1031580008F1010814350C36B3E700BF5808002001
:1031680000ED00E0090C002038B50E4D2C68082C45
:1031780015D80020FFF788FF0B4B0C4AC3F8C02076
:10318800844205D10A4B00201C70FFF771FF38BD3F
:10319800696801EB0011FFF77DFE0130F0E74FF0A1
:1031A800FF30F4E7247F000000ED00E0AAFF4400B0
:1031B800090C002008B5024B1B689847002008BD81
:1031C8006C080020034B044A1860937843F002030C
:1031D800937070476C08002028000020F0B587B075
:1031E80007460E4614460021102268461D4604F084
:1031F80052FC02238DF80230054B2A4621466846C8
:10320800CDE90476019303F01FFA07B0F0BD00BFC3
:10321800BD70000008B50649064821F00701C1F154
:10322800005202F5E02203F035FD002008BD00BF82
:103238006319002050190020084B70B5C31A0D46B9
:1032480007499B10044659434022064803F059FF9A
:103258002B4601462046BDE87040184784080020E8
:10326800B76DDBB6447B0000402373B50B4C00936D
:10327800041B0B460D460A49A41061430646094A39
:10328800094803F06AFF011E05DA30462B4602B0F2
:10329800BDE87040184702B070BD00BF8408002028
:1032A800B76DDBB6CD710000447B00002DE9F84313
:1032B8000022012106460520FFF734F9114801F0E4
:1032C800A7FB114B984219D104F097F900244FF04D
:1032D8001C090C27DFF834803569414609FB045086
:1032E80003F080FD002807DB012307FB04551C447D
:1032F800042CAB67F0D10020BDE8F8836FF0040020
:10330800FAE700BF4D3300000000AD0B4C7F000012
:1033180001460C2300224B4370B50848C418783383
:103328001844D4E91C56226703F0D8FE2DB1324662
:103338002B46BDE870400248184770BD840800203D
:10334800447B0000062812D8DFE800F0040F1111B2
:10335800110D0B00064B986F10F0070007D1FFF70F
:10336800D7BF0220FBE70320F9E70120F7E7704702
:103378008408002008B54FF02003EFF3118183F390
:103388001288BFF36F8F124A136843F0020010606F
:10339800DA0708D481F31188BFF36F8FBDE80840BE
:1033A800012004F03CB94FF05023D3F80C24D3F893
:1033B8000C34DB07EED5074803F090FE81F3118843
:1033C800BFF36F8FBDE808400020FFF7A1BF00BF23
:1033D80024090020FC0800201FB500220123CDE9A4
:1033E80002236B46084ACDF800D0CDF804D003F08C
:1033F800E2FE002805DB4FF480420023684602F015
:10340800C7FA05B05DF804FB0372000010B54FF071
:103418002003EFF3118483F31288BFF36F8F074AF9
:10342800136823F00201DB07116002D4012004F0C5
:1034380055F984F31188BFF36F8F10BD240900205C
:103448002DE9F041012207463749D1E8EF3FC1E8AD
:10345800E02F0028F9D133B9344935484B60CB60A7
:103468008A6003F0D2FC7B1E012B2BD8012F07D1D9
:103478004FF05023D3F81C3403F00303022B21D060
:1034880004F0F4F90546F8B92A4B1B78E3B14FF07C
:10349800502302220646C3F808234FF05024DFF8D1
:1034A8009880D4F81824D4F81834D20316D503F029
:1034B8000303022B01D0012F10D175B386F31188B5
:1034C800BFF36F8FBDE8F0814FF02003EFF3118653
:1034D80083F31288BFF36F8F0125DEE7C5B130464D
:1034E800FEF78EFFD4F81835DBB2012BD9D1D4F80A
:1034F8000421002AD5D00022C4F80421D4F80421DC
:103508000222C4F818252022C8F88021A360C8E741
:103518000021212002F026FDE4E74FF0502302228B
:10352800C3F80423CEE700BF8008002070080020FD
:10353800A00800200C0C002000E100E008B50748B6
:1035480004F02BF938B10648FFF73CFE0448FEF7B3
:1035580045F8002008BD6FF01200FBE7807B0000F3
:103568006D3500000A2838B50446074D04D1AB680C
:103578000D2128465B689847AB6803485B68E1B251
:103588009847204638BD00BF807B000030B54068B2
:1035980001F01F04057BB2F5001F85B044EA45140D
:1035A80005D1204601F044FD002005B030BD0025BE
:1035B800B2F5800FCDE9025514D1B3F1007F0CBFED
:1035C800042305238DF8083000232046194602AA53
:1035D80001F050FB224B98423CD10121204601F0DA
:1035E800DBFCE1E7B3F1C06F27D0B3F1007F14BF74
:1035F800012302238DF80830836823FA01F111F0C2
:103608000101E1D1B2F1A07FDED104F01F0362090C
:1036180003F1800313D0012A1FD1124A52F8233034
:10362800DB07D1D40DF107052946204601F05EFCE1
:103638000D4B984205D00395C6E70323DAE70B4AFA
:10364800ECE7284601F0A2FC054B9842F3D06FF056
:103658000B00AAE76FF01500A7E751F82330FFDE4B
:103668000000AD0B002884500400AD0B00258450E9
:1036780010B501F07BFC044668B901F04FFC084B1B
:1036880098420AD12146074801F02AFC2246052122
:103698000D20FEF747FF002010BD6FF00400FBE788
:1036A8000000AD0BB13600004209034670B502D0E8
:1036B800012A17D070BD0D4E326951680029F9D022
:1036C800012503F01F030C689D400029F2D08A6889
:1036D8002A4002D030464B6898472CB123682146CF
:1036E8001C46F2E7024EE7E72346F8E76C7B00004A
:1036F800587B00002DE9FF41476801F01F053B7B1F
:10370800144645EA43150E4628460DF1070101F017
:10371800EDFB14F4403F80460DD1284601F0AEFC85
:103728003C4B984503D19DF8070001F029FC002087
:1037380004B0BDE8F08100232846194602AACDE965
:10374800023301F097FA334B984214D1804503D1E4
:103758009DF8070001F014FCA3034CD540F2063392
:103768002340B3F5837F1AD00DD8062B18D005D87F
:10377800B3B1022B32D06FF01500D9E7B3F5807FD3
:10378800F9D101230CE040F20222934228D0B3F58C
:10379800407F27D0B3F5007FEDD1022300E0072357
:1037A8008DF8083084F48033C3F30043E0068DF8C5
:1037B80009304CBF0323C4F3401321038DF80A30AA
:1037C80012D501237A68B34093600022284602A9E3
:1037D80001F008FB0F4B9842A9D0CCE70423DFE7A0
:1037E8000523DDE70323DBE7620341BF01237A6892
:1037F800B340D360E9E7E3064FF000034CBF03246E
:10380800C4F340141A46284602A98DF8084001F06E
:1038180031FADFE70000AD0B10B504460269A6B027
:10382800C2F880002449002001F038FD002201215F
:103838002A20FEF777FE64688422002105A804F098
:103848002AF96368B3F5803F09D31C4B022202931F
:1038580000231B491846CDE9003303F030FD2368E7
:10386800B3F5803F09D3174B022202930023144972
:103878001846CDE9003303F022FD002301202593EB
:1038880005AA61680432D940C90744BF00FA03F1A8
:1038980042F8041C2168D940C90748BF00FA03F15F
:1038A80003F1010348BFD163102BEAD105A801F049
:1038B8000DFD002026B010BD21390000D287000080
:1038C8002C7E0000FE87000030B505460C4685B00A
:1038D8004AB10F4B0222029300230E491846CDE944
:1038E800003303F0ECFC0F2C0FD86B685B68E340E7
:1038F800DB070AD501230020A400E4B204F1A044A8
:1039080004F52834236005B030BD6FF01500FAE7E0
:103918002A8800002C7E00007FB5D1F880600F282F
:1039280004460D46736803D81B68C340DB0709D4F7
:10393800144B02220293002313491846CDE90033A1
:1039480003F0BDFCD5F88430E34013F0010308D13F
:103958000E4A1846CDE901320B490222009303F0C2
:10396800AEFC05EB840255F8245045B100232146EE
:103978003046AC46126C04B0BDE87040604704B0F5
:1039880070BD00BF458800002C7E000061880000E3
:1039980030B50F290C46056985B041D843681B68C6
:1039A800CB40DB073CD5D5F88430CB4003F001038E
:1039B8001AB90BBB6FF0770030E0002BFAD155F83D
:1039C800213043B9184A1846CDE901321749022275
:1039D800009303F074FCD5F8843013B92A20FEF75D
:1039E80071FD0122D5F88430A2401343C5F8843014
:1039F800E0B201F08BFC0AE0C8B201F08FFC0122B2
:103A0800D5F88430A24023EA0203C5F88430D5F8FB
:103A1800843013B92A20FEF763FD002005B030BDBD
:103A28006FF01500FAE700BF7E8800002C7E0000CA
:103A3800036803F01F025B09026004D0012B0348EE
:103A480018BF002070470248704700BF0028845004
:103A5800002584502DE9F04F154682464FF00108A5
:103A6800DFF8509185B000EB8101514503D100206A
:103A780005B0BDE8F08FDAF8003003F07F04C3F337
:103A880043277F2C4FEA134308BF4FF0FF34222B04
:103A980000F28D80DFE803F01219213A24343A8BC2
:103AA8008B8B8B3D698B8B8B8B8B8B8B8B8B8B8BCE
:103AB8008B8B8B8B8B6C7275787B7E00C5F80C4575
:103AC800621C6AD10AF1040ACFE7C5F81445631CE1
:103AD800F8D000264FF0000B24E0C5F80845EFE7C2
:103AE800631CC5F80845EDD0002603A80394FFF72A
:103AF8009FFF039B08FA03F3C3604FF0010B11E02B
:103B0800661CC5F80C45DDD00126EEE7C5F8104562
:103B1800DDE7C5F80845002FD9D1601CD2D00026B2
:103B28000627B346DAF8003003A803F40052002A47
:103B38001CBF01264FF0000B01930394FFF778FF99
:103B4800039A019B00EB8200D0F80022C3F3C11452
:103B58003B0243EA840343EA0B0302EA09021343E4
:103B680043EA4603C0F80032ACE7C5F80C45D2E793
:103B7800C5F82445621CA5D00126ABE7C5F8284541
:103B88009EE7C5F83045F5E7C5F83445F2E7C5F8CE
:103B98003845EFE7C5F83C45ECE703A80394FFF781
:103BA80047FF039B012608FA03F38360A5E76FF03C
:103BB80085005DE7F0F0FCFF036803F01F025B0976
:103BC800026004D0012B034818BF00207047024848
:103BD800704700BF002884500025845043680020A7
:103BE800D979024BCB40C2E9003070470024F40079
:103BF8002DE9F04F0E4698464368914699791F681B
:103C0800B14205698FB00DD86D4B01220293002394
:103C18006C491846CDE90033039603F073FB6FF047
:103C2800150063E0B8F1000F0FD090450DD00022C9
:103C38002C1D964205D054F8220010B12868814501
:103C480057D10132D0B28142F3D8334493F804A05B
:103C580006F1040BAB199C7A05EB4B030A935A4BFC
:103C680008220393594B574902930023CDE905983D
:103C78001846CDE900320496042203F043FB0121E3
:103C880005EB4B035A7815F81B0001FA02F201FA0A
:103C980000F040EA02031846089300F0B3FEBDF8AE
:103CA80060E0012100230EF0010EB8F1000F2BD1C6
:103CB800CDF824E0099BCDF834A00DA8002B78D1CD
:103CC800FFF77AFF01230D9A9340C3600023A400F5
:103CD80004F1A04404F5504405EB8605C4F81035FA
:103CE800C4F810356B6001237B6000200FB0BDE87D
:103CF800F08F374B01220293002332491846CDE951
:103D0800003303F0FFFA8AE78EF00102C8450992F2
:103D1800D0D0721C5FFA82FC6246920002F5A07253
:103D2800BB50B818BA58C7F84031D7F840310CF52D
:103D3800A87347F823808EF001030990180507F54A
:103D4800A072244B40EA0A200B9240F0031004F5BD
:103D5800A272A400C7F84095F96043F8220004F164
:103D680030026034D2B2E4B2BEF1000F02D1134681
:103D780022461C4602F1A04215F81B00099902F5DB
:103D8800504203F078FB0A9B04F1A042587802F5F0
:103D9800504207F5A07103F06EFB089800F02CFE66
:103DA80001233B60C5F8009005EB8605C5F8048043
:103DB8009BE7FFF701FF01230D9A9340836085E796
:103DC800C7880000447E000055890000F088000084
:103DD800DC88000000D000502DE9F04F476800252E
:103DE8003E46036956F8034BDFF8D8A0DFF8D8B091
:103DF80087B003F1090803F10A09BB799D424AD249
:103E080008F1FF3003F046FB504504D1404603F06B
:103E180041FB50450ED02D4B02930023012218463A
:103E2800CDE900332A4903F06DFA6FF00B0007B0B3
:103E3800BDE8F08F09EB050001F0A8F8504501D066
:103E4800244BE9E77B797278EB40DB07059205A8FC
:103E58001AD4FFF7B1FE0123059A9340C36016F800
:103E6800013F05A80593FFF7A7FE059B013500EB69
:103E78008300D0F8003208F1020803EA0B0343F08C
:103E88000303C0F80032B8E7FFF796FE0123059A4E
:103E980093408360E3E7D4F80435002023F003035C
:103EA800C4F80435FB79C4F81035D4F8083543F064
:103EB8000303C4F80835D4F8003243F00103C4F80A
:103EC8000032B4E70000AD0BF0F0FCFF14890000ED
:103ED800447E0000338900007FB50BAB0593039344
:103EE800054B0122029300231846CDE90033FDF764
:103EF80033FF07B05DF804FB7D890000F0B54B790E
:103F0800012B29D0032B24D110278B79032B20D107
:103F1800CE790EB1012E1CD10A79012A1ED0022AAF
:103F280020D0B2B914460B684568B3F5164FD5F8DA
:103F380000C06ED033D8B3F5165F6DD01CD8B3F57A
:103F4800966F6BD010D8B3F5967F6AD0B3F5167F0D
:103F58006AD06FF085005BE00027D6E74FF48074E5
:103F68000E22E0E70024FBE7B3F5166F5FD0B3F548
:103F7800965FEED1384B3CE0B3F5E14F5AD007D805
:103F8800B3F5615F58D0B3F5964FE2D1334B30E0CB
:103F980047F61225AB42DCD14FF4000329E0B3F514
:103FA800613F4BD013D8B3F5963F4AD009D84DF6A8
:103FB800C025AB4247D0B3F5614FCAD14FF46B036C
:103FC80017E0B3F5E13FC4D14FF0EB7311E0B3F55F
:103FD800612F3BD008D8224DAB423AD0B3F5E12F40
:103FE800B7D14FF0E86304E01E4DAB42B1D14FF0BA
:103FF80080530569CCF8243543683A431B68344339
:104008002243C3F86C252B1D03C983E80300002055
:10401800F0BD4FF41D03ECE7134BEAE74FF49E2382
:10402800E7E74FF4A033E4E74FF41C33E1E74FF43C
:104038001D23DEE70D4BDCE70D4BDAE74FF06C7321
:10404800D7E70C4BD5E74FF46503D2E74FF0706321
:10405800CFE74FF08063CCE700B0130000A04E001C
:1040680090D0030040420F000050270000C07500A8
:1040780000F03A0000903A012DE9F043804687B0FD
:10408800002201210820FEF74DFA0820FEF71AFA4F
:104098000021D8F80470D8F810603D6805AAC5F862
:1040A8000015C6F80080D7F80C90484603F017F9B9
:1040B800041E24DB059BD9F8002019791868FFF73E
:1040C800C9FC041E1BDB4046311DFFF717FF0446E1
:1040D800A8B97B68990722D506F1180000F000FD01
:1040E800234B98420FD0234B2046CDE9014300943F
:1040F800234601222049FFF7EFFE6FF00404204613
:1041080007B0BDE8F083307E05F10C0205F590712B
:1041180003F0B1F90120337E984000F06DFC0823CC
:10412800C5F800353B7A53B9C5F81031D5F81031C8
:104138007369C5F834350123C5F838352B607B68B9
:104148009A075CBF4FF48073C5F804337B68DB06BD
:1041580044BF4FF48003C5F804333369C5F84435C8
:104168000023C5F848350123AB60EB60C7E700BF03
:104178000000AD0B7D8900005C7E0000F8B50446A8
:104188000D46076903F072FBB0B92E4B1B789BB143
:104198006426606803F0E9F800BB012003F05FF9CA
:1041A800013EF6D10021212001F0DCFEF0E786F384
:1041B8001188BFF36F8FF5E74FF02003EFF31186F7
:1041C80083F31288BFF36F8F6068314603F0CDF830
:1041D80090B986F31188BFF36F8FEDE74FF0200396
:1041E800EFF3118683F31288BFF36F8F606831464F
:1041F80003F0BBF80028DAD03B691D7062683869A3
:104208001368C3F844050120C3F848050020C3F823
:104218002001D3F82051C3F858015268D3F8580147
:10422800D20608D5082062681268C2F800054FF463
:104238008002C3F8042301229A6081F31188BFF336
:104248006F8FF8BD0C0C00200123834070B5DC4350
:104258000B4AD2E8EF1F01EA0405C2E8E65F002E28
:10426800F7D14FF4803282400648C0F80823BFF3E4
:104278005F8FBFF36F8F0B4214BF0120002070BD0A
:10428800DC0900200050015070B40E4922F07F462E
:10429800D1E90034D01AC31844F10004C1E900344C
:1042A800A6F50013B3F5400F09D2074B1B681A0A8D
:1042B8001B069C19054B42F10005C3E9004570BC7B
:1042C80001F0A6BFC8010020E0090020D0010020AD
:1042D800D9B101230D4A8340D2E8EFCF4CEA030C51
:1042E800C2E8E1CF0029F7D14FF48033084A834070
:1042F800C2F80433074BD3E8AF3FC340DB0742BFE4
:104308004FF40012044BC3F800217047DC09002069
:1043180000500150D409002000E100E0C3B2024877
:104328009B001844704700BF40510150024B00F5F4
:10433800A87053F820007047005001500D4B1868C2
:10434800010A0006BFF35F8F0B4BD3F8043518182A
:1043580041F10001B3F5801F0AD2084BD3E90023CD
:10436800904271EB030303D210F1807041F1000118
:10437800704700BFE009002000500150D001002024
:104388002DE9F04F85B016461F4604469DF840A01B
:10439800FFF75AFF0190FFF7D1FFB04271EB070317
:1043A80052D23B4B301A67EB0101984271F1000180
:1043B8004DD2384B03EB0413D3E902239F4208BFC5
:1043C800964258D04FF48038334908FA04F820460A
:1043D80026F07F4BC1F8488303F010F84FF003092B
:1043E800584604F15005AD00ADB205F1502504F56D
:1043F800A87305F580350293029A20F07F4341F8AF
:104408002230C1F84483D1F80435244AC01A03384D
:1044180020F07F4090422ED9286868B1D1F8043541
:10442800A3EB0B0020F07F40B0F5000F039322D9D7
:10443800204602F0E3FF039BBAF1000F07D109EB16
:10444800030009F10109D7E7BAF1000F09D06FF0AD
:10445800150520460199FFF73BFF284605B0BDE842
:10446800F08F01230E4AA340D2E8EF0F1843C2E8A9
:10447800E10F0029F8D107490E982301C8500F9B76
:1044880001EB04120025C2E902675360E1E700BFAF
:1044980001008000A801002000500150FDFF7F00AE
:1044A800D40900207FB500254FF0FF304FF0FF31D1
:1044B8004FF480321C4C1D4B0226C4F80833C4F854
:1044C80048331B4BC4F80855C3E90201C4F8042358
:1044D800C3E906014FF400334FF40012C4F8043363
:1044E800144B0121C4F804631520C3F880212A461F
:1044F800FEF718F81520FDF7E5FF01230322A36056
:1045080023600D4B28461A600C4B0D4A1E600D4B5C
:10451800CDE9015500930023FFF732FF3046FEF73F
:104528008FFF284604B070BD0050015003000F00F3
:10453800A801002000E100E0DC090020D8090020E3
:10454800FFFF7F00914200002DE9F04F394B85B005
:10455800D3F8042392070BD5D3F8042142B10022E3
:10456800C3F80421344AD3F80431136801331360C3
:10457800324D0024A8464FF480362E4FD7F8043326
:1045880006FA04F919EA030F2ED00123A340DB43EE
:104598002B49D1E8EF2F02EA0300C1E8EC0FBCF188
:1045A800000FF6D122FA04F3DB0703D4254B53F8A6
:1045B8002430CBB1204602F021FFFFF7BFFE4FF0B9
:1045C8002002EFF3118382F31288BFF36F8F08EB99
:1045D800041CDCE902AB504571EB0B0102930AD2D3
:1045E80083F31188BFF36F8F103514B105B0BDE8A0
:1045F800F08F0124C2E70020D5E900134FF0FF3205
:1046080003934FF0FF3328600A48CCE90223C0F82F
:104618004893204602F0F2FE029B83F31188BFF311
:104628006F8F0029E0D0039B524600935B46884772
:10463800DAE700BF00500150E0090020A80100207F
:10464800D40900204051015070B501240C4B186862
:1046580090B1B0FA80F0C0F11F0004FA00F1C9432C
:10466800D3E8EF2F02EA0105C3E8E65F002EF7D191
:10467800C240D207EBD570BD6FF00B00FBE700BF5F
:10468800D80900200123054A8340D2E8EF0F1843D8
:10469800C2E8E10F0029F8D1704700BFD80900200F
:1046A8001FB5431C22D0012822DD124A124B90422A
:1046B800D4BF04461C46FFF741FE104B0E49D3E910
:1046C8000023801AB0F5000F28BF002404448C4250
:1046D80028BF0C4600200A49A218CDE90100009124
:1046E80043F10003FFF74CFE04B010BD024CE2E7B3
:1046F8000124E0E7FEFF7F00FFFF7F00C8010020E4
:104708009142000008B5FFF719FE024B1B68C01A5A
:1047180008BD00BFC8010020012310B5074C1520B3
:104728006360FDF7DDFE4FF40012054BC4F8083353
:10473800C4F84833034BC3F8802110BD0050015022
:1047480003000F0000E100E07FB50BAB0593039376
:10475800054B0122029300231846CDE90033FDF7EB
:10476800FBFA07B05DF804FBB68900001FB500240A
:10477800FDF782FA064B2046029301222346CDE933
:1047880000440449FFF7E0FF2046FEF707FB00BF9F
:10479800B68900000C7E00004FF47F03D3F8302167
:1047A800D3F83431072A05D1023B032B02D8024A39
:1047B800D05C704700207047DB89000008B5FFF720
:1047C800EBFF58B1644BD3F8202A3AB90D21C3F84E
:1047D800201A0121C3F81C19C3F81C290022D30090
:1047E80003F57F03D3F80013013107D0D3F8001382
:1047F8000132D3F80433202A0B60F0D1FFF7CCFF45
:10480800002840F0A080FFF7C7FF40B1534B544A3F
:10481800C3F830254FF050230122C3F858254FF430
:104828007F03D3F83021D3F83431072A09D1023B6A
:10483800032B06D84B4AD35C1BB100224A4BC3F862
:104848004C25FFF7A9FF50B14FF05023D3F80024AF
:10485800D10742BF0022C3F81421C3F818214FF42E
:104868007F03D3F83021D3F83431072A09D14FF028
:104878005023D3F80024D20744BF6FF00102C3F8D5
:104888000024FFF789FF18B16522334BC3F80C27C2
:104898004FF47F03D3F83021D3F83431072A16D1E7
:1048A800314BD3F82034002B11DA4FF05023032278
:1048B800C3F8182501229A60D3F80421002AFBD0F6
:1048C8000022C3F804210122DA60C3F818254FF446
:1048D8007F03D3F83021D3F83431072A23D1023BA0
:1048E800032B02D8214AD35CEBB17E221A4B1B4919
:1048F800C3F80C27C3F83C297F231D4AC2F8183196
:104908000023C1F8043EC1F8083E01F54821C1F86A
:104918001031C2F82431C2F82C3102F5FF1202F529
:104928008052C2F8A032134AD2F88C3043F4406364
:10493800C2F88C30104A114B1168C3F84415D2697B
:10494800C3F84C2508BD2922034BC3F80C270322C2
:10495800C3F83C2757E700BF0040005000900350C1
:104968004400EFBED789000000200350D38900001F
:104978000020005000ED00E00080FF0000600050C3
:1049880030B50468ACB1B4FA84F30122C3F11F0353
:10499800DBB29A4024EA0202D0E8EF5FA54204D1D4
:1049A800C0E8EC2FBCF1000FF6D1EAD102480B7039
:1049B80030BD0248FCE700BF0000AD0B0200AD0BA4
:1049C80010B50368CB40DB0710D401238B40026885
:1049D80043EA0201D0E8EF4F944204D1C0E8EC1F4B
:1049E800BCF1000FF6D1F2D1014810BD0148FCE737
:1049F8000000AD0B0400AD0B014BC3F80405704774
:104A080000700150014BC3F8080570470070015051
:104A1800044B1A7922B9012218601A7102487047AA
:104A280002487047E40900200000AD0B0C00AD0BF4
:104A38004FF0502310B5D3F8002152B10020C3F82D
:104A48000001D3F800210122C3F80823234B1B6877
:104A580098474FF05023D3F8042182B10022C3F8BD
:104A68000421D3F80421D3F81824D3F818240221F8
:104A780002F00302012A28D1C3F818159A604FF0F2
:104A88005023D3F8202162B10022C3F82021D3F8A3
:104A980020214FF48072C3F80823104B05201B68AF
:104AA80098474FF05023D3F82421AAB10022C3F825
:104AB8002421D3F824214FF40072C3F80823074BAC
:104AC8000620BDE810401B681847C3F80813034BBD
:104AD80001201B689847D2E710BD00BFE4090020F9
:104AE80001460148FFF74CBF600000200123044A3B
:104AF80083400146C2F808350248FFF761BF00BF8E
:104B08000070015060000020036803F01F025B0979
:104B1800026004D0012B034818BF002070470248E8
:104B2800704700BF0028845000258450034A430979
:104B3800D35C00F01F001844C0B27047F48900002D
:104B480008B5FFF7F3FF034B083033F81000C0F344
:104B5800401008BD6400002008B5FFF7E7FF034BCD
:104B6800083033F81000C0F3400008BD640000208E
:104B780008B5FFF7DBFF034B083033F81000400B94
:104B880008BD00BF6400002070B50546FFF7CEFFE2
:104B98000C4C083034F810300E46DA0508D5C3F34B
:104BA800432304EBC302284654F83330526898472D
:104BB800A3682BB131462846E268BDE87040184723
:104BC80070BD00BF6400002010B5FFF7AFFF124AA8
:104BD800083032F81030D9051CD5C3F3432123F42B
:104BE800F85322F81030002002F10E0434F8023F86
:104BF80013F4807F03D0C3F3432399420AD00130D2
:104C08003028F3D1002342F831300448BDE8104081
:104C1800FFF7D6BE10BD00BF64000020D8000020FA
:104C280001460020F0B5012506460F4A0F4C02F157
:104C38003043A3F551439B0805FA03F3194204D006
:104C4800176817B11660176818430432A242EED1EC
:104C5800074BD3F87C2132B10022C3F87C21D3F86A
:104C68007C3140F00040F0BD00D1005020D1005010
:104C780000D000502DE9FF41054690461E46FFF73B
:104C880055FF044609B32846FFF766FF18B12846C2
:104C9800FFF756FF28BB00230DF10F02CDE90033C3
:104CA8008DF80E308DF80F3028460B460DF10E01A9
:104CB80002F016FD474A04F1080132F8113023F0DA
:104CC800020343F0010322F81130B8F1000F32D08B
:104CD800284698F80070D8F80410FFF73DFF10B187
:104CE800F1B13D4829E03B4804F1080C30F81C308C
:104CF80023F02003DB04DB0C20F81C3081B1032FE8
:104D0800EFD8D8F8042092F800E07246920002F139
:104D1800A04202F550429FB9C2F81075C2F810754A
:104D28002C4A04F1080132F8113023F01C0343EA3D
:104D3800870322F811301EBB284804B0BDE8F08173
:104D4800D2F8101543EA4E3321F00301C2F81015CA
:104D5800D2F8101543F0200321F44F3121F44071AB
:104D6800C2F81015D2F81085290201F47C5141EAE5
:104D7800080141EA0741C2F8101520F81C30CFE7B6
:104D88002846D6E90076FFF71FFF002FD4D0114D33
:104D9800D5E90023974201D19E4218D010480DF161
:104DA8000F01FFF7EDFD0D4B9842C6D19DF80F207E
:104DB80005EBC20308345E6035F8143045F83270EC
:104DC80043EA422343F4807325F81430B4E7002201
:104DD800EEE700BF640000200400AD0B0000AD0B3F
:104DE800D80000202DE9FF4104461646FFF79EFE35
:104DF800054631B32046FFF7AFFE20B92046FFF73E
:104E08009FFE002863D1334F05F1080837F81830A2
:104E180013F01C0F02D04B78012B58D001238DF8CA
:104E28000F3000234A1CCDE9001320468B1C0DF1DE
:104E38000F0102F055FC37F8183043F0030327F848
:104E480018301EB9244804B0BDE8F0812046FFF7A9
:104E580083FE00283BD096F800C0002361461D4F12
:104E680005F1080037F81050890025F0200501F1F8
:104E7800A041ED0401F55041ED0CC1F8103527F8BB
:104E88001050C1F810357278002ADBD0D1F81035EF
:104E9800B67823F4991323F4F853C1F810351204A3
:104EA8002302D1F810E502F4403203F47C53134393
:104EB800320543EA0E0302F4801245EA4C351343E7
:104EC80045F02005C1F8103527F81050BAE7034817
:104ED800B9E700BF640000200000AD0B0400AD0B73
:104EE800014BC3E9020170476400002010B5044675
:104EF800FFF726FE50B12046FFF718FE044B083096
:104F080033F8103003485B0B0B7010BD0248FCE708
:104F1800640000200000AD0B0400AD0B70B50F4C11
:104F280094F87860BEB90E4D6022314604F1100045
:104F380002F0B1FD0D20C5F87C61D5F87C31FDF794
:104F4800C1FA4FF00043C5F804330123054884F83B
:104F58007830636770BD0448FCE700BF6400002038
:104F680000D000500000AD0B0500AD0B034B93F8CB
:104F78007800003818BF0120704700BF6400002087
:104F880001460148FFF71CBDD40000200146014836
:104F9800FFF7F6BCD400002037B50446FFF7D0FD74
:104FA80008B32046FFF7D8FD0546E0B92046FFF7CD
:104FB800DFFD03B29B0003F1A04202F5514203F169
:104FC800A043156003F550431268D3F8102542F04A
:104FD8000102C3F8102521B10123134A8340C2F806
:104FE800043303B030BD2046FFF7A0FD0F4B083057
:104FF80033F81030C3F38203042B11D0052B11D0E2
:1050080001A80194FFF780FD019B0169D94001F0D7
:1050180001010231204603B0BDE8304002F0A9BBCF
:105028000321F7E70221F5E700D0005064000020D3
:1050380010B50446FFF784FDC0B12046FFF78CFD8C
:10504800A0B92046FFF794FD01230B4A8340C2F81C
:10505800083303B29B0003F1A04303F55043D3F890
:10506800102522F00302C3F8102510BD2046BDE824
:105078001040002102F07DBB00D0005073B50446FB
:10508800FFF754FD1A4E00F1080536F81530DB0716
:105098002CD52046FFF7CCFF2046FFF751FD68B11D
:1050A8002046FFF765FD002203B29B0003F1A043F1
:1050B80003F55043C3F81025C3F810252046FFF721
:1050C80083FD002301A826F815300194FFF71CFD85
:1050D800019B00EB8300D0F80022064B134043F0FD
:1050E8000203C0F80032044802B070BD0348FBE771
:1050F80064000020F0F0FCFF0000AD0B0400AD0BD5
:105108002DE9F04F604B87B0D3F80403C0B240F0EC
:105118000040FFF785FD051E80F29980DFF86C914D
:10512800D9F820300493C9F82030594B1A6A0592EF
:105138001A624FF0000A0DF11008564B0AEB030BE8
:105148004CE093FAA3F3B3FA83F39BF8004001937E
:1051580043EA44142046FFF7E9FC4F4B083033F884
:1051680010700120019B0394DA0803F007039840AC
:1051780018F80230B90823EA000308F8023003A837
:10518800FFF7C2FC039BC7F38206803350F8233035
:105198004A073746C3F301432CD520463946DEB2C9
:1051A800FFF7F2FC03A80394FFF7AEFC039B8033E0
:1051B80050F82330C3F301439E4207D10021204613
:1051C80002F0D7FA3146204602F0D3FA03A8039436
:1051D800FFF79AFC0123039A93400362D8F8003042
:1051E800002BAED108F10408BAF1000F1DD14FF021
:1051F800010AA2E7022B0CD10321204602F0B9FADA
:1052080006F00503012BE1D139462046FFF7BCFC27
:10521800DCE702212046019302F0ABFA032EF3D01B
:10522800019B032BD2D1022EEDE74FF00040FFF790
:10523800F7FCD9F8203016490493C9F820300A6AD7
:10524800134305920A627FF474AF25F000450124E8
:1052580015B907B0BDE8F08F95FAA5F3B3FA83F353
:1052680004FA03F29B0003F1A04303F55043D3F87B
:105278001005D3F81015C0F30520C1F3014125EA44
:105288000205FFF781FCE3E700D0005000258450B9
:1052980000288450048A00006400002070B5084C7F
:1052A8000E462379154643B92A20FDF70BF9012349
:1052B800044823712660A56070BD0348FCE700BF61
:1052C800EC0900200000AD0B0C00AD0B002330B53D
:1052D8000D4A50F8234003F5A2710133102B42F810
:1052E8002140F6D10023084A00F13C0103F5B274CD
:1052F80051F8045F0133102B42F82450F6D1D0F84E
:105308008030C2F8043330BD00A002500123024AA5
:105318008340C2F80433704700A002500123024AB8
:105328008340C2F80833704700A00250F8B5012640
:1053380000270B4B0B4DD3F80C4304B9F8BD94FA76
:10534800A4F0B0FA80F006FA00F324EA0304064B4E
:1053580082009F502B68002BEFD0A9689847ECE794
:1053680000A00250EC09002000A102502DE9F041F4
:10537800054686B00E464FF02003EFF3118883F3FD
:105388001288BFF36F8F02F08FFB0024224B042D8D
:105398001F5896BF214B224B53F825300122CDE9E7
:1053A8000434204B2046CDE901431F492346039589
:1053B800009402F0FDF96EB1F369C3F308034BB131
:1053C8001A4B0122CDE90143204623461649009491
:1053D80002F0EEF92FB1384602F04EFA08B1037820
:1053E80003B91348134B012202930023CDE903703C
:1053F800CDE9003318460C4902F0DAF9314628465F
:10540800FFF7B4F988F31188BFF36F8F384606B0F9
:10541800BDE8F041FDF70CBD080000005880000011
:10542800128A0000288A00003C7E0000508A000092
:10543800208A0000718A0000104B70B553F8204094
:10544800013053F82060A64200D870BDD4E9003579
:1054580095B153B12846984738B10028B8BF4042A3
:10546800FF28A8BFFF20EB681870EA68537843F05C
:10547800010353700834E6E79847FBE76C800000A7
:10548800012208B5094B03201A70FFF7D5FF00F079
:1054980043FF0420FFF7D0FF00F044F9FBF714FEA8
:1054A800034A137B23F00103137308BD0C0C00207F
:1054B8005802002008B50348034A0021121A02F0D6
:1054C80087F908BDA8010020100C00200023012244
:1054D80070B586B0CDE904230F220193CDE90232DD
:1054E80014234FF4A0720446114D124E03FB0055CD
:1054F800114906EBC01602FB0011104B304600950F
:1055080000F0D2F8737B2C7423F0040373730C4BF4
:10551800013403EBC4236B600A4BEE60D3E8EF1F42
:105528000131C3E8E21F002AF8D106B070BD00BF00
:10553800FC090020D8010020101400208578000004
:10554800100C0020F809002080B50020A6B0FFF755
:1055580073FF2E4B03F5006282F3088883F30A88F1
:105568000024E0232A4D2B4E85F82230EC772C7648
:105578006C76AC7685F820406B6A274F43F4E023BD
:105588006B6285F82340FDF7B7FBFCF71FFF4FF070
:10559800FF33AB62EB62FDF7E7FDFDF75FFCFCF75D
:1055A80057FB40F20113ADF8243006ABB360CDE9E8
:1055B8001E44219402F0F0F80120FFF73DFF02207D
:1055C800164DFFF739FF00F043FC154B7561059345
:1055D800012314494FF48062CDE9034328463B4632
:1055E800CDE90144009400F05FF806466A7B28463E
:1055F80022F004026A7302F096F92046FFF766FF6C
:105608003A4631462846FDF73DF800BF100C002009
:1056180000ED00E0FC090020895400005802002039
:10562800D38A000050150020002038B5054C064DDF
:10563800AC4200D338BD204602F0CEF80028F9DB92
:105648001C34F5E7580100205801002073B50C46BA
:105658004FF02005EFF3118185F31288BFF36F8FA8
:1056680045695DB125602B684361836901338361B6
:10567800002081F31188BFF36F8F11E052EA03060F
:1056880003D16FF00B002560F3E7CDE90023024654
:10569800083000F0E7FA18B9024B9B685B69236091
:1056A80002B070BDFC0900202DE9F043984685B092
:1056B80000F15803C0E91633109B00260373042336
:1056C800073222F0070543730F9B01EB05090F46CC
:1056D80083734946C0E906668660C6730446FCF7CC
:1056E800FFFF0E9B073020F00700A066C4E918757D
:1056F80002930D9BA9EB000901930C9B4A4600936A
:10570800394643462046FCF7A1FF054B66659B6872
:1057180003B1DB6E4846E36605B0BDE8F08300BF21
:10572800FC0900202DE9F043294C2A4D87B0264674
:10573800AE4204F12C040FD300F05AFB4FF400469C
:1057480040F2E737224CDFF89090AC4220D307B004
:10575800BDE8F04300F060BB54F8043C059354F8EE
:105768000C3C049354F8103C039354F8143C0293F3
:1057780054F8183C019354F81C3C009354E909234D
:1057880054E90B01FFF790FF54F82C3C5E65CEE717
:10579800636A5A1C0DD00021384623EAE373C3FB21
:1057A800060151EAC333D4F8008004D1404600F022
:1057B800CFFA2C34C9E74FF47A720023FBF714FBB5
:1057C80002460B4608F11800494600F0ABFCF0E72A
:1057D800E47D0000E47D0000937900002DE9F341A9
:1057E800044617461E464FF02003EFF3118883F353
:1057F8001288BFF36F8FC368334A7BB180689168A2
:10580800884219D057EA060318D188F31188BFF3E4
:105818006F8F6FF00F0002B0BDE8F081916891F9C9
:105828000E100133E36093682161A36088F3118847
:10583800BFF36F8F0020EEE72169F2E791F90E10B0
:1058480090F90E306FF07E029942A8BF1946914236
:10585800B8BF11468B422EDD02F01CF805462246E1
:105868004146CDE90076194800F0FCF90028E1D05E
:105878004FF02003EFF3118683F31288BFF36F8F85
:10588800A068D0B1236821699C420AD04BB193F932
:105898000E309942A8BF19466FF07E039942B8BFEF
:1058A800194601F0F7FF40B13146084800F03EFACA
:1058B8006FF00A00AFE70025D1E7002DF4D186F399
:1058C8001188BFF36F8FF3E7FC0900200D0C00204F
:1058D80038B5836804466BB3194A926893422CD151
:1058E800C368012B03D9013BC360002038BD4FF0CA
:1058F8002003EFF3118583F31288BFF36F8F0169DB
:10590800806801F0C7FF204602F043F8A06058B154
:1059180090F90E2022610022826702F004F82946DD
:10592800084800F003FAE0E7E06085F31188BFF368
:105938006F8FDAE76FF01500D8E74FF0FF30D5E743
:10594800FC0900200D0C002038B504464FF0200358
:10595800EFF3118583F31288BFF36F8F02F019F804
:1059680048B10022826701F0DEFF2946BDE83840D1
:10597800064800F0DBB9D4E902329A4218BF013375
:10598800A36085F31188BFF36F8F38BD0D0C00201D
:1059980013B54FF02004EFF3118184F31288BFF39D
:1059A8006F8F846844B1013C846081F31188BFF330
:1059B8006F8F002002B010BD52EA030406D181F3B4
:1059C8001188BFF36F8F6FF00F00F3E7CDE9002365
:1059D8000246024800F046F9ECE700BF0D0C002033
:1059E800C3897F2B12D80A4B1B6863B1094B90F906
:1059F8000E201B689A4209DB437BDB0606D1064B67
:105A0800C31A18BF012303F0010070470023FAE707
:105A1800240A0020200A0020D80100200122044B7B
:105A2800C01A044BC0105843034B1A54704700BFA8
:105A3800D8020020ABAAAAAA0D0C002070B50E4B04
:105A48000E4C1E7C054606EB460304EBC3042046B9
:105A580001F0D1FF00220A4B28469A55FFF7C0FFF4
:105A680048B1084B2046BDE870401A680649013A1B
:105A7800D31700F057BB70BDFC090020D8020020E6
:105A88000D0C0020240A0020255A000038B50D4DC1
:105A98002B4653F8184F9C4200D004B9EC68AB6809
:105AA80038B95A7BD20604D1A26912B9DA897F2A99
:105AB80005D89C4202D02046FFF7C0FF23466B6101
:105AC80038BD00BFFC09002070B590F90D200146D3
